{
  "contractName": "ToDo",
  "abi": [
    {
      "constant": true,
      "inputs": [
        {
          "name": "",
          "type": "uint256"
        }
      ],
      "name": "tasks",
      "outputs": [
        {
          "name": "id",
          "type": "uint256"
        },
        {
          "name": "content",
          "type": "string"
        },
        {
          "name": "completed",
          "type": "bool"
        }
      ],
      "payable": false,
      "stateMutability": "view",
      "type": "function",
      "signature": "0x8d977672"
    },
    {
      "constant": true,
      "inputs": [],
      "name": "taskCount",
      "outputs": [
        {
          "name": "",
          "type": "uint256"
        }
      ],
      "payable": false,
      "stateMutability": "view",
      "type": "function",
      "signature": "0xb6cb58a5"
    },
    {
      "inputs": [],
      "payable": false,
      "stateMutability": "nonpayable",
      "type": "constructor",
      "signature": "constructor"
    },
    {
      "anonymous": false,
      "inputs": [
        {
          "indexed": false,
          "name": "id",
          "type": "uint256"
        },
        {
          "indexed": false,
          "name": "content",
          "type": "string"
        },
        {
          "indexed": false,
          "name": "completed",
          "type": "bool"
        }
      ],
      "name": "TaskCreated",
      "type": "event",
      "signature": "0x05d0fb833127fc08168556d0e7ca9554fc3f6bc843b3b7d2bf1c35aea6bab660"
    },
    {
      "anonymous": false,
      "inputs": [
        {
          "indexed": false,
          "name": "id",
          "type": "uint256"
        },
        {
          "indexed": false,
          "name": "completed",
          "type": "bool"
        }
      ],
      "name": "TaskComp",
      "type": "event",
      "signature": "0x6e3501704fc6c2e1fe3e82310caeeda4ea84b781395f0f8dd61ab5e6e4d7aa21"
    },
    {
      "constant": false,
      "inputs": [
        {
          "name": "_content",
          "type": "string"
        }
      ],
      "name": "TaskCr",
      "outputs": [],
      "payable": false,
      "stateMutability": "nonpayable",
      "type": "function",
      "signature": "0xea0a7d00"
    },
    {
      "constant": false,
      "inputs": [
        {
          "name": "_id",
          "type": "uint256"
        }
      ],
      "name": "toggleComp",
      "outputs": [],
      "payable": false,
      "stateMutability": "nonpayable",
      "type": "function",
      "signature": "0x96aa4972"
    }
  ],
  "bytecode": "0x60806040526000805534801561001457600080fd5b5060408051808201909152600981527f54657374205461736b0000000000000000000000000000000000000000000000602082015261005b90640100000000610060810204565b61021f565b60008054600190810180835560408051606081018252828152602080820187815282840187905293865284815291909420845181559151805192936100ad93908501929190910190610184565b5060408201518160020160006101000a81548160ff0219169083151502179055509050507f05d0fb833127fc08168556d0e7ca9554fc3f6bc843b3b7d2bf1c35aea6bab660600054826000604051808481526020018060200183151515158152602001828103825284818151815260200191508051906020019080838360005b8381101561014557818101518382015260200161012d565b50505050905090810190601f1680156101725780820380516001836020036101000a031916815260200191505b5094505050505060405180910390a150565b828054600181600116156101000203166002900490600052602060002090601f016020900481019282601f106101c557805160ff19168380011785556101f2565b828001600101855582156101f2579182015b828111156101f25782518255916020019190600101906101d7565b506101fe929150610202565b5090565b61021c91905b808211156101fe5760008155600101610208565b90565b6106448061022e6000396000f3fe6080604052600436106100615763ffffffff7c01000000000000000000000000000000000000000000000000000000006000350416638d977672811461006657806396aa49721461011a578063b6cb58a514610146578063ea0a7d001461016d575b600080fd5b34801561007257600080fd5b506100906004803603602081101561008957600080fd5b5035610220565b604051808481526020018060200183151515158152602001828103825284818151815260200191508051906020019080838360005b838110156100dd5781810151838201526020016100c5565b50505050905090810190601f16801561010a5780820380516001836020036101000a031916815260200191505b5094505050505060405180910390f35b34801561012657600080fd5b506101446004803603602081101561013d57600080fd5b50356102cf565b005b34801561015257600080fd5b5061015b61042f565b60408051918252519081900360200190f35b34801561017957600080fd5b506101446004803603602081101561019057600080fd5b8101906020810181356401000000008111156101ab57600080fd5b8201836020820111156101bd57600080fd5b803590602001918460018302840111640100000000831117156101df57600080fd5b91908080601f016020809104026020016040519081016040528093929190818152602001838380828437600092019190915250929550610435945050505050565b600160208181526000928352604092839020805481840180548651600296821615610100026000190190911695909504601f810185900485028601850190965285855290949193929091908301828280156102bc5780601f10610291576101008083540402835291602001916102bc565b820191906000526020600020905b81548152906001019060200180831161029f57829003601f168201915b5050506002909301549192505060ff1683565b6102d7610559565b60008281526001602081815260409283902083516060810185528154815281840180548651600296821615610100026000190190911695909504601f810185900485028601850190965285855290949193858401939092908301828280156103805780601f1061035557610100808354040283529160200191610380565b820191906000526020600020905b81548152906001019060200180831161036357829003601f168201915b50505091835250506002919091015460ff161515602091820152604080830180511590526000858152600180845291902083518155838301518051949550859491936103d19385019291019061057d565b50604091820151600291909101805460ff1916911515919091179055818101518151848152901515602082015281517f6e3501704fc6c2e1fe3e82310caeeda4ea84b781395f0f8dd61ab5e6e4d7aa21929181900390910190a15050565b60005481565b60008054600190810180835560408051606081018252828152602080820187815282840187905293865284815291909420845181559151805192936104829390850192919091019061057d565b5060408201518160020160006101000a81548160ff0219169083151502179055509050507f05d0fb833127fc08168556d0e7ca9554fc3f6bc843b3b7d2bf1c35aea6bab660600054826000604051808481526020018060200183151515158152602001828103825284818151815260200191508051906020019080838360005b8381101561051a578181015183820152602001610502565b50505050905090810190601f1680156105475780820380516001836020036101000a031916815260200191505b5094505050505060405180910390a150565b60606040519081016040528060008152602001606081526020016000151581525090565b828054600181600116156101000203166002900490600052602060002090601f016020900481019282601f106105be57805160ff19168380011785556105eb565b828001600101855582156105eb579182015b828111156105eb5782518255916020019190600101906105d0565b506105f79291506105fb565b5090565b61061591905b808211156105f75760008155600101610601565b9056fea165627a7a72305820dbf649deec32a677c8ba245af23fd76ce44dd73068ccd9077fc732ee4554bced0029",
  "source": "pragma solidity ^0.5.0;\r\n\r\ncontract ToDo {\r\n\tuint public taskCount = 0;\r\n\r\n\tstruct Task{\r\n\t\tuint id;\r\n\t\tstring content;\r\n\t\tbool completed;\r\n\t}\r\n\r\n\r\n\tmapping(uint => Task) public tasks;\r\n\t\r\n\tevent TaskCreated(\r\n\t\tuint id,\r\n\t\tstring content,\r\n\t\tbool completed\r\n\t);\r\n\r\n\tevent TaskComp(\r\n\tuint id,\r\n\tbool completed\r\n\t);\r\n\r\n\tconstructor() public {\r\n\t\tTaskCr(\"Test Task\");\r\n\t}\r\n\r\n\tfunction TaskCr(string memory _content) public {\r\n\t\ttaskCount ++;\r\n\t\ttasks[taskCount] = Task(taskCount, _content, false);\r\n\t\temit TaskCreated(taskCount, _content, false);\r\n\t}\r\n\r\n\tfunction toggleComp(uint _id) public{\r\n\t\tTask memory _task = tasks[_id];\r\n\t\t_task.completed = !_task.completed;\r\n\t\ttasks[_id] = _task;\r\n\t\temit TaskComp(_id, _task.completed);\r\n\t}\r\n\r\n}",
  "sourcePath": "C:/Users/owner/eth-todo-list/contracts/ToDo.sol",
  "compiler": {
    "name": "solc",
    "version": "0.5.0+commit.1d4f565a.Emscripten.clang"
  },
  "schemaVersion": "3.0.1",
  "updatedAt": "2020-02-10T18:19:25.447Z",
  "devdoc": {
    "methods": {}
  },
  "userdoc": {
    "methods": {}
  }
}